{
  "_format": "hh-sol-artifact-1",
  "contractName": "BallotFactory",
  "sourceName": "contracts/BallotFactory.sol",
  "abi": [
    {
      "inputs": [
        {
          "internalType": "uint256",
          "name": "",
          "type": "uint256"
        }
      ],
      "name": "ballots",
      "outputs": [
        {
          "internalType": "contract Ballot",
          "name": "",
          "type": "address"
        }
      ],
      "stateMutability": "view",
      "type": "function"
    },
    {
      "inputs": [
        {
          "internalType": "string[]",
          "name": "_proposalList",
          "type": "string[]"
        },
        {
          "internalType": "string",
          "name": "_title",
          "type": "string"
        }
      ],
      "name": "createBallot",
      "outputs": [],
      "stateMutability": "nonpayable",
      "type": "function"
    },
    {
      "inputs": [],
      "name": "getBallots",
      "outputs": [
        {
          "components": [
            {
              "internalType": "string",
              "name": "title",
              "type": "string"
            },
            {
              "internalType": "address",
              "name": "_address",
              "type": "address"
            }
          ],
          "internalType": "struct BallotFactory.BallotDetail[]",
          "name": "ballotDetails",
          "type": "tuple[]"
        }
      ],
      "stateMutability": "view",
      "type": "function"
    }
  ],
  "bytecode": "0x608060405234801561001057600080fd5b50611a79806100206000396000f3fe60806040523480156200001157600080fd5b5060043610620000465760003560e01c80630f4b98f6146200004b5780635c632b38146200006b578063eb87c6dc14620000a1575b600080fd5b620000696004803603810190620000639190620006d6565b620000c3565b005b6200008960048036038101906200008391906200078e565b62000164565b60405162000098919062000a2c565b60405180910390f35b620000ab620001a4565b604051620000ba919062000a08565b60405180910390f35b60008282604051620000d5906200049d565b620000e2929190620009cd565b604051809103906000f080158015620000ff573d6000803e3d6000fd5b509080600181540180825580915050600190039060005260206000200160009091909190916101000a81548173ffffffffffffffffffffffffffffffffffffffff021916908373ffffffffffffffffffffffffffffffffffffffff1602179055505050565b600081815481106200017557600080fd5b906000526020600020016000915054906101000a900473ffffffffffffffffffffffffffffffffffffffff1681565b60606000808054905067ffffffffffffffff811115620001ed577f4e487b7100000000000000000000000000000000000000000000000000000000600052604160045260246000fd5b6040519080825280602002602001820160405280156200022a57816020015b62000216620004ab565b8152602001906001900390816200020c5790505b50905060005b600080549050811015620004955760405180604001604052806000838154811062000284577f4e487b7100000000000000000000000000000000000000000000000000000000600052603260045260246000fd5b9060005260206000200160009054906101000a900473ffffffffffffffffffffffffffffffffffffffff1673ffffffffffffffffffffffffffffffffffffffff1663ff3c1a8f6040518163ffffffff1660e01b815260040160006040518083038186803b158015620002f557600080fd5b505afa1580156200030a573d6000803e3d6000fd5b505050506040513d6000823e3d601f19601f8201168201806040525081019062000335919062000749565b81526020016000838154811062000375577f4e487b7100000000000000000000000000000000000000000000000000000000600052603260045260246000fd5b9060005260206000200160009054906101000a900473ffffffffffffffffffffffffffffffffffffffff1673ffffffffffffffffffffffffffffffffffffffff166338cc48316040518163ffffffff1660e01b815260040160206040518083038186803b158015620003e657600080fd5b505afa158015620003fb573d6000803e3d6000fd5b505050506040513d601f19601f82011682018060405250810190620004219190620006aa565b73ffffffffffffffffffffffffffffffffffffffff1681525082828151811062000474577f4e487b7100000000000000000000000000000000000000000000000000000000600052603260045260246000fd5b602002602001018190525080806200048c9062000c57565b91505062000230565b508091505090565b610cfb8062000d4983390190565b604051806040016040528060608152602001600073ffffffffffffffffffffffffffffffffffffffff1681525090565b6000620004f2620004ec8462000a72565b62000a49565b905080838252602082019050828560208602820111156200051257600080fd5b60005b858110156200056157813567ffffffffffffffff8111156200053657600080fd5b80860162000545898262000639565b8552602085019450602084019350505060018101905062000515565b5050509392505050565b6000620005826200057c8462000aa1565b62000a49565b9050828152602081018484840111156200059b57600080fd5b620005a884828562000bdc565b509392505050565b6000620005c7620005c18462000aa1565b62000a49565b905082815260208101848484011115620005e057600080fd5b620005ed84828562000beb565b509392505050565b600081519050620006068162000d14565b92915050565b600082601f8301126200061e57600080fd5b813562000630848260208601620004db565b91505092915050565b600082601f8301126200064b57600080fd5b81356200065d8482602086016200056b565b91505092915050565b600082601f8301126200067857600080fd5b81516200068a848260208601620005b0565b91505092915050565b600081359050620006a48162000d2e565b92915050565b600060208284031215620006bd57600080fd5b6000620006cd84828501620005f5565b91505092915050565b60008060408385031215620006ea57600080fd5b600083013567ffffffffffffffff8111156200070557600080fd5b62000713858286016200060c565b925050602083013567ffffffffffffffff8111156200073157600080fd5b6200073f8582860162000639565b9150509250929050565b6000602082840312156200075c57600080fd5b600082015167ffffffffffffffff8111156200077757600080fd5b620007858482850162000666565b91505092915050565b600060208284031215620007a157600080fd5b6000620007b18482850162000693565b91505092915050565b6000620007c883836200090a565b905092915050565b6000620007de83836200098c565b905092915050565b620007f18162000b76565b82525050565b6000620008048262000af7565b62000810818562000b32565b935083602082028501620008248562000ad7565b8060005b85811015620008665784840389528151620008448582620007ba565b9450620008518362000b18565b925060208a0199505060018101905062000828565b50829750879550505050505092915050565b6000620008858262000b02565b62000891818562000b43565b935083602082028501620008a58562000ae7565b8060005b85811015620008e75784840389528151620008c58582620007d0565b9450620008d28362000b25565b925060208a01995050600181019050620008a9565b50829750879550505050505092915050565b620009048162000bb4565b82525050565b6000620009178262000b0d565b62000923818562000b54565b93506200093581856020860162000beb565b620009408162000d03565b840191505092915050565b6000620009588262000b0d565b62000964818562000b65565b93506200097681856020860162000beb565b620009818162000d03565b840191505092915050565b60006040830160008301518482036000860152620009ab82826200090a565b9150506020830151620009c26020860182620007e6565b508091505092915050565b60006040820190508181036000830152620009e98185620007f7565b90508181036020830152620009ff81846200094b565b90509392505050565b6000602082019050818103600083015262000a24818462000878565b905092915050565b600060208201905062000a436000830184620008f9565b92915050565b600062000a5562000a68565b905062000a63828262000c21565b919050565b6000604051905090565b600067ffffffffffffffff82111562000a905762000a8f62000cd4565b5b602082029050602081019050919050565b600067ffffffffffffffff82111562000abf5762000abe62000cd4565b5b62000aca8262000d03565b9050602081019050919050565b6000819050602082019050919050565b6000819050602082019050919050565b600081519050919050565b600081519050919050565b600081519050919050565b6000602082019050919050565b6000602082019050919050565b600082825260208201905092915050565b600082825260208201905092915050565b600082825260208201905092915050565b600082825260208201905092915050565b600062000b838262000b8a565b9050919050565b600073ffffffffffffffffffffffffffffffffffffffff82169050919050565b6000819050919050565b600062000bc18262000bc8565b9050919050565b600062000bd58262000b8a565b9050919050565b82818337600083830152505050565b60005b8381101562000c0b57808201518184015260208101905062000bee565b8381111562000c1b576000848401525b50505050565b62000c2c8262000d03565b810181811067ffffffffffffffff8211171562000c4e5762000c4d62000cd4565b5b80604052505050565b600062000c648262000baa565b91507fffffffffffffffffffffffffffffffffffffffffffffffffffffffffffffffff82141562000c9a5762000c9962000ca5565b5b600182019050919050565b7f4e487b7100000000000000000000000000000000000000000000000000000000600052601160045260246000fd5b7f4e487b7100000000000000000000000000000000000000000000000000000000600052604160045260246000fd5b6000601f19601f8301169050919050565b62000d1f8162000b76565b811462000d2b57600080fd5b50565b62000d398162000baa565b811462000d4557600080fd5b5056fe60806040523480156200001157600080fd5b5060405162000cfb38038062000cfb8339818101604052810190620000379190620003ce565b60018251116200007e576040517f08c379a000000000000000000000000000000000000000000000000000000000815260040162000075906200051d565b60405180910390fd5b6040516020016200008f9062000506565b6040516020818303038152906040528051906020012081604051602001620000b89190620004ed565b60405160208183030381529060405280519060200120141562000112576040517f08c379a000000000000000000000000000000000000000000000000000000000815260040162000109906200053f565b60405180910390fd5b60005b8251811015620001cd576001604051806020016040528085848151811062000166577f4e487b7100000000000000000000000000000000000000000000000000000000600052603260045260246000fd5b6020026020010151815250908060018154018082558091505060019003906000526020600020016000909190919091506000820151816000019080519060200190620001b4929190620001ef565b5050508080620001c490620006c2565b91505062000115565b508060009080519060200190620001e6929190620001ef565b50505062000829565b828054620001fd9062000656565b90600052602060002090601f0160209004810192826200022157600085556200026d565b82601f106200023c57805160ff19168380011785556200026d565b828001600101855582156200026d579182015b828111156200026c5782518255916020019190600101906200024f565b5b5090506200027c919062000280565b5090565b5b808211156200029b57600081600090555060010162000281565b5090565b6000620002b6620002b0846200058a565b62000561565b90508083825260208201905082856020860282011115620002d657600080fd5b60005b858110156200032557815167ffffffffffffffff811115620002fa57600080fd5b808601620003098982620003a1565b85526020850194506020840193505050600181019050620002d9565b5050509392505050565b6000620003466200034084620005b9565b62000561565b9050828152602081018484840111156200035f57600080fd5b6200036c84828562000620565b509392505050565b600082601f8301126200038657600080fd5b8151620003988482602086016200029f565b91505092915050565b600082601f830112620003b357600080fd5b8151620003c58482602086016200032f565b91505092915050565b60008060408385031215620003e257600080fd5b600083015167ffffffffffffffff811115620003fd57600080fd5b6200040b8582860162000374565b925050602083015167ffffffffffffffff8111156200042957600080fd5b6200043785828601620003a1565b9150509250929050565b60006200044e82620005ef565b6200045a81856200060b565b93506200046c81856020860162000620565b80840191505092915050565b600062000487602883620005fa565b91506200049482620007ae565b604082019050919050565b6000620004ae601983620005fa565b9150620004bb82620007fd565b602082019050919050565b6000620004d56000836200060b565b9150620004e28262000826565b600082019050919050565b6000620004fb828462000441565b915081905092915050565b60006200051382620004c6565b9150819050919050565b60006020820190508181036000830152620005388162000478565b9050919050565b600060208201905081810360008301526200055a816200049f565b9050919050565b60006200056d62000580565b90506200057b82826200068c565b919050565b6000604051905090565b600067ffffffffffffffff821115620005a857620005a76200076e565b5b602082029050602081019050919050565b600067ffffffffffffffff821115620005d757620005d66200076e565b5b620005e2826200079d565b9050602081019050919050565b600081519050919050565b600082825260208201905092915050565b600081905092915050565b6000819050919050565b60005b838110156200064057808201518184015260208101905062000623565b8381111562000650576000848401525b50505050565b600060028204905060018216806200066f57607f821691505b602082108114156200068657620006856200073f565b5b50919050565b62000697826200079d565b810181811067ffffffffffffffff82111715620006b957620006b86200076e565b5b80604052505050565b6000620006cf8262000616565b91507fffffffffffffffffffffffffffffffffffffffffffffffffffffffffffffffff82141562000705576200070462000710565b5b600182019050919050565b7f4e487b7100000000000000000000000000000000000000000000000000000000600052601160045260246000fd5b7f4e487b7100000000000000000000000000000000000000000000000000000000600052602260045260246000fd5b7f4e487b7100000000000000000000000000000000000000000000000000000000600052604160045260246000fd5b6000601f19601f8301169050919050565b7f4e6f206f662070726f706f73616c732073686f756c642062652067726561746560008201527f72207468616e2031000000000000000000000000000000000000000000000000602082015250565b7f5469746c652073686f756c64206e6f7420626520656d70747900000000000000600082015250565b50565b6104c280620008396000396000f3fe608060405234801561001057600080fd5b506004361061004c5760003560e01c806338cc4831146100515780634a79d50c1461006f578063c6311e3f1461008d578063ff3c1a8f146100bd575b600080fd5b6100596100db565b604051610066919061033b565b60405180910390f35b6100776100e3565b6040516100849190610356565b60405180910390f35b6100a760048036038101906100a291906102ca565b610171565b6040516100b49190610356565b60405180910390f35b6100c5610223565b6040516100d29190610356565b60405180910390f35b600030905090565b600080546100f090610403565b80601f016020809104026020016040519081016040528092919081815260200182805461011c90610403565b80156101695780601f1061013e57610100808354040283529160200191610169565b820191906000526020600020905b81548152906001019060200180831161014c57829003601f168201915b505050505081565b6001818154811061018157600080fd5b906000526020600020016000915090508060000180546101a090610403565b80601f01602080910402602001604051908101604052809291908181526020018280546101cc90610403565b80156102195780601f106101ee57610100808354040283529160200191610219565b820191906000526020600020905b8154815290600101906020018083116101fc57829003601f168201915b5050505050905081565b60606000805461023290610403565b80601f016020809104026020016040519081016040528092919081815260200182805461025e90610403565b80156102ab5780601f10610280576101008083540402835291602001916102ab565b820191906000526020600020905b81548152906001019060200180831161028e57829003601f168201915b5050505050905090565b6000813590506102c481610475565b92915050565b6000602082840312156102dc57600080fd5b60006102ea848285016102b5565b91505092915050565b6102fc81610394565b82525050565b600061030d82610378565b6103178185610383565b93506103278185602086016103d0565b61033081610464565b840191505092915050565b600060208201905061035060008301846102f3565b92915050565b600060208201905081810360008301526103708184610302565b905092915050565b600081519050919050565b600082825260208201905092915050565b600061039f826103a6565b9050919050565b600073ffffffffffffffffffffffffffffffffffffffff82169050919050565b6000819050919050565b60005b838110156103ee5780820151818401526020810190506103d3565b838111156103fd576000848401525b50505050565b6000600282049050600182168061041b57607f821691505b6020821081141561042f5761042e610435565b5b50919050565b7f4e487b7100000000000000000000000000000000000000000000000000000000600052602260045260246000fd5b6000601f19601f8301169050919050565b61047e816103c6565b811461048957600080fd5b5056fea26469706673582212208fbc386cbf15cd338342f7c2bb7b7f8ff6bd02569a75c10cdad7076a09e6181764736f6c63430008040033a2646970667358221220558254c9899af20ec79f40c32e406e97a514be4331fae9becc20739573e43a2864736f6c63430008040033",
  "linkReferences": {},
  "deployedLinkReferences": {}
}