{
  "_format": "hh-sol-artifact-1",
  "contractName": "Ballot",
  "sourceName": "contracts/Ballot.sol",
  "abi": [
    {
      "inputs": [
        {
          "internalType": "string[]",
          "name": "_proposalList",
          "type": "string[]"
        },
        {
          "internalType": "string",
          "name": "_title",
          "type": "string"
        }
      ],
      "stateMutability": "nonpayable",
      "type": "constructor"
    },
    {
      "inputs": [],
      "name": "getAddress",
      "outputs": [
        {
          "internalType": "address",
          "name": "",
          "type": "address"
        }
      ],
      "stateMutability": "view",
      "type": "function"
    },
    {
      "inputs": [],
      "name": "getMyVote",
      "outputs": [
        {
          "components": [
            {
              "internalType": "bool",
              "name": "voted",
              "type": "bool"
            },
            {
              "internalType": "uint256",
              "name": "vote",
              "type": "uint256"
            }
          ],
          "internalType": "struct Ballot.Voter",
          "name": "",
          "type": "tuple"
        }
      ],
      "stateMutability": "view",
      "type": "function"
    },
    {
      "inputs": [],
      "name": "getProposals",
      "outputs": [
        {
          "components": [
            {
              "internalType": "string",
              "name": "name",
              "type": "string"
            },
            {
              "internalType": "uint256",
              "name": "voteCount",
              "type": "uint256"
            }
          ],
          "internalType": "struct Ballot.Proposal[]",
          "name": "",
          "type": "tuple[]"
        }
      ],
      "stateMutability": "view",
      "type": "function"
    },
    {
      "inputs": [],
      "name": "getTitle",
      "outputs": [
        {
          "internalType": "string",
          "name": "",
          "type": "string"
        }
      ],
      "stateMutability": "view",
      "type": "function"
    },
    {
      "inputs": [
        {
          "internalType": "uint256",
          "name": "",
          "type": "uint256"
        }
      ],
      "name": "proposalList",
      "outputs": [
        {
          "internalType": "string",
          "name": "name",
          "type": "string"
        },
        {
          "internalType": "uint256",
          "name": "voteCount",
          "type": "uint256"
        }
      ],
      "stateMutability": "view",
      "type": "function"
    },
    {
      "inputs": [],
      "name": "title",
      "outputs": [
        {
          "internalType": "string",
          "name": "",
          "type": "string"
        }
      ],
      "stateMutability": "view",
      "type": "function"
    },
    {
      "inputs": [
        {
          "internalType": "uint256",
          "name": "proposalIndex",
          "type": "uint256"
        }
      ],
      "name": "vote",
      "outputs": [],
      "stateMutability": "nonpayable",
      "type": "function"
    },
    {
      "inputs": [
        {
          "internalType": "address",
          "name": "",
          "type": "address"
        }
      ],
      "name": "voters",
      "outputs": [
        {
          "internalType": "bool",
          "name": "voted",
          "type": "bool"
        },
        {
          "internalType": "uint256",
          "name": "vote",
          "type": "uint256"
        }
      ],
      "stateMutability": "view",
      "type": "function"
    }
  ],
  "bytecode": "0x60806040523480156200001157600080fd5b50604051620014c9380380620014c98339818101604052810190620000379190620003e3565b60018251116200007e576040517f08c379a0000000000000000000000000000000000000000000000000000000008152600401620000759062000532565b60405180910390fd5b6040516020016200008f906200051b565b6040516020818303038152906040528051906020012081604051602001620000b8919062000502565b60405160208183030381529060405280519060200120141562000112576040517f08c379a0000000000000000000000000000000000000000000000000000000008152600401620001099062000554565b60405180910390fd5b60005b8251811015620001e2576001604051806040016040528085848151811062000166577f4e487b7100000000000000000000000000000000000000000000000000000000600052603260045260246000fd5b60200260200101518152602001600081525090806001815401808255809150506001900390600052602060002090600202016000909190919091506000820151816000019080519060200190620001bf92919062000204565b506020820151816001015550508080620001d990620006d7565b91505062000115565b508060009080519060200190620001fb92919062000204565b5050506200083e565b82805462000212906200066b565b90600052602060002090601f01602090048101928262000236576000855562000282565b82601f106200025157805160ff191683800117855562000282565b8280016001018555821562000282579182015b828111156200028157825182559160200191906001019062000264565b5b50905062000291919062000295565b5090565b5b80821115620002b057600081600090555060010162000296565b5090565b6000620002cb620002c5846200059f565b62000576565b90508083825260208201905082856020860282011115620002eb57600080fd5b60005b858110156200033a57815167ffffffffffffffff8111156200030f57600080fd5b8086016200031e8982620003b6565b85526020850194506020840193505050600181019050620002ee565b5050509392505050565b60006200035b6200035584620005ce565b62000576565b9050828152602081018484840111156200037457600080fd5b6200038184828562000635565b509392505050565b600082601f8301126200039b57600080fd5b8151620003ad848260208601620002b4565b91505092915050565b600082601f830112620003c857600080fd5b8151620003da84826020860162000344565b91505092915050565b60008060408385031215620003f757600080fd5b600083015167ffffffffffffffff8111156200041257600080fd5b620004208582860162000389565b925050602083015167ffffffffffffffff8111156200043e57600080fd5b6200044c85828601620003b6565b9150509250929050565b6000620004638262000604565b6200046f818562000620565b93506200048181856020860162000635565b80840191505092915050565b60006200049c6028836200060f565b9150620004a982620007c3565b604082019050919050565b6000620004c36019836200060f565b9150620004d08262000812565b602082019050919050565b6000620004ea60008362000620565b9150620004f7826200083b565b600082019050919050565b600062000510828462000456565b915081905092915050565b60006200052882620004db565b9150819050919050565b600060208201905081810360008301526200054d816200048d565b9050919050565b600060208201905081810360008301526200056f81620004b4565b9050919050565b60006200058262000595565b9050620005908282620006a1565b919050565b6000604051905090565b600067ffffffffffffffff821115620005bd57620005bc62000783565b5b602082029050602081019050919050565b600067ffffffffffffffff821115620005ec57620005eb62000783565b5b620005f782620007b2565b9050602081019050919050565b600081519050919050565b600082825260208201905092915050565b600081905092915050565b6000819050919050565b60005b838110156200065557808201518184015260208101905062000638565b8381111562000665576000848401525b50505050565b600060028204905060018216806200068457607f821691505b602082108114156200069b576200069a62000754565b5b50919050565b620006ac82620007b2565b810181811067ffffffffffffffff82111715620006ce57620006cd62000783565b5b80604052505050565b6000620006e4826200062b565b91507fffffffffffffffffffffffffffffffffffffffffffffffffffffffffffffffff8214156200071a576200071962000725565b5b600182019050919050565b7f4e487b7100000000000000000000000000000000000000000000000000000000600052601160045260246000fd5b7f4e487b7100000000000000000000000000000000000000000000000000000000600052602260045260246000fd5b7f4e487b7100000000000000000000000000000000000000000000000000000000600052604160045260246000fd5b6000601f19601f8301169050919050565b7f4e6f206f662070726f706f73616c732073686f756c642062652067726561746560008201527f72207468616e2031000000000000000000000000000000000000000000000000602082015250565b7f5469746c652073686f756c64206e6f7420626520656d70747900000000000000600082015250565b50565b610c7b806200084e6000396000f3fe608060405234801561001057600080fd5b50600436106100885760003560e01c80638cb647d31161005b5780638cb647d314610103578063a3ec138d14610121578063c6311e3f14610152578063ff3c1a8f1461018357610088565b80630121b93f1461008d57806338cc4831146100a95780634a79d50c146100c757806362564c48146100e5575b600080fd5b6100a760048036038101906100a29190610732565b6101a1565b005b6100b1610337565b6040516100be9190610930565b60405180910390f35b6100cf61033f565b6040516100dc9190610996565b60405180910390f35b6100ed6103cd565b6040516100fa919061094b565b60405180910390f35b61010b6104c8565b6040516101189190610a08565b60405180910390f35b61013b60048036038101906101369190610709565b610544565b60405161014992919061096d565b60405180910390f35b61016c60048036038101906101679190610732565b610575565b60405161017a9291906109b8565b60405180910390f35b61018b610631565b6040516101989190610996565b60405180910390f35b600360003373ffffffffffffffffffffffffffffffffffffffff1673ffffffffffffffffffffffffffffffffffffffff16815260200190815260200160002060000160009054906101000a900460ff1615610231576040517f08c379a0000000000000000000000000000000000000000000000000000000008152600401610228906109e8565b60405180910390fd5b6001818154811061026b577f4e487b7100000000000000000000000000000000000000000000000000000000600052603260045260246000fd5b9060005260206000209060020201600101600081548092919061028d90610b36565b91905055506001600360003373ffffffffffffffffffffffffffffffffffffffff1673ffffffffffffffffffffffffffffffffffffffff16815260200190815260200160002060000160006101000a81548160ff02191690831515021790555080600360003373ffffffffffffffffffffffffffffffffffffffff1673ffffffffffffffffffffffffffffffffffffffff1681526020019081526020016000206001018190555050565b600030905090565b6000805461034c90610b04565b80601f016020809104026020016040519081016040528092919081815260200182805461037890610b04565b80156103c55780601f1061039a576101008083540402835291602001916103c5565b820191906000526020600020905b8154815290600101906020018083116103a857829003601f168201915b505050505081565b60606001805480602002602001604051908101604052809291908181526020016000905b828210156104bf578382906000526020600020906002020160405180604001604052908160008201805461042490610b04565b80601f016020809104026020016040519081016040528092919081815260200182805461045090610b04565b801561049d5780601f106104725761010080835404028352916020019161049d565b820191906000526020600020905b81548152906001019060200180831161048057829003601f168201915b50505050508152602001600182015481525050815260200190600101906103f1565b50505050905090565b6104d06106c3565b600360003373ffffffffffffffffffffffffffffffffffffffff1673ffffffffffffffffffffffffffffffffffffffff1681526020019081526020016000206040518060400160405290816000820160009054906101000a900460ff16151515158152602001600182015481525050905090565b60036020528060005260406000206000915090508060000160009054906101000a900460ff16908060010154905082565b6001818154811061058557600080fd5b90600052602060002090600202016000915090508060000180546105a890610b04565b80601f01602080910402602001604051908101604052809291908181526020018280546105d490610b04565b80156106215780601f106105f657610100808354040283529160200191610621565b820191906000526020600020905b81548152906001019060200180831161060457829003601f168201915b5050505050908060010154905082565b60606000805461064090610b04565b80601f016020809104026020016040519081016040528092919081815260200182805461066c90610b04565b80156106b95780601f1061068e576101008083540402835291602001916106b9565b820191906000526020600020905b81548152906001019060200180831161069c57829003601f168201915b5050505050905090565b6040518060400160405280600015158152602001600081525090565b6000813590506106ee81610c17565b92915050565b60008135905061070381610c2e565b92915050565b60006020828403121561071b57600080fd5b6000610729848285016106df565b91505092915050565b60006020828403121561074457600080fd5b6000610752848285016106f4565b91505092915050565b600061076783836108a6565b905092915050565b61077881610a89565b82525050565b600061078982610a33565b6107938185610a56565b9350836020820285016107a585610a23565b8060005b858110156107e157848403895281516107c2858261075b565b94506107cd83610a49565b925060208a019950506001810190506107a9565b50829750879550505050505092915050565b6107fc81610a9b565b82525050565b61080b81610a9b565b82525050565b600061081c82610a3e565b6108268185610a67565b9350610836818560208601610ad1565b61083f81610bdd565b840191505092915050565b600061085582610a3e565b61085f8185610a78565b935061086f818560208601610ad1565b61087881610bdd565b840191505092915050565b6000610890600d83610a78565b915061089b82610bee565b602082019050919050565b600060408301600083015184820360008601526108c38282610811565b91505060208301516108d86020860182610912565b508091505092915050565b6040820160008201516108f960008501826107f3565b50602082015161090c6020850182610912565b50505050565b61091b81610ac7565b82525050565b61092a81610ac7565b82525050565b6000602082019050610945600083018461076f565b92915050565b60006020820190508181036000830152610965818461077e565b905092915050565b60006040820190506109826000830185610802565b61098f6020830184610921565b9392505050565b600060208201905081810360008301526109b0818461084a565b905092915050565b600060408201905081810360008301526109d2818561084a565b90506109e16020830184610921565b9392505050565b60006020820190508181036000830152610a0181610883565b9050919050565b6000604082019050610a1d60008301846108e3565b92915050565b6000819050602082019050919050565b600081519050919050565b600081519050919050565b6000602082019050919050565b600082825260208201905092915050565b600082825260208201905092915050565b600082825260208201905092915050565b6000610a9482610aa7565b9050919050565b60008115159050919050565b600073ffffffffffffffffffffffffffffffffffffffff82169050919050565b6000819050919050565b60005b83811015610aef578082015181840152602081019050610ad4565b83811115610afe576000848401525b50505050565b60006002820490506001821680610b1c57607f821691505b60208210811415610b3057610b2f610bae565b5b50919050565b6000610b4182610ac7565b91507fffffffffffffffffffffffffffffffffffffffffffffffffffffffffffffffff821415610b7457610b73610b7f565b5b600182019050919050565b7f4e487b7100000000000000000000000000000000000000000000000000000000600052601160045260246000fd5b7f4e487b7100000000000000000000000000000000000000000000000000000000600052602260045260246000fd5b6000601f19601f8301169050919050565b7f416c726561647920766f74656400000000000000000000000000000000000000600082015250565b610c2081610a89565b8114610c2b57600080fd5b50565b610c3781610ac7565b8114610c4257600080fd5b5056fea2646970667358221220dba4bbb1186009e833b22924b65d422c821697231b5b1c454643a374c2a6645664736f6c63430008040033",
  "linkReferences": {},
  "deployedLinkReferences": {}
}